{
  "contractName": "CryptoRoulette",
  "abi": [
    {
      "inputs": [],
      "stateMutability": "nonpayable",
      "type": "constructor"
    },
    {
      "anonymous": false,
      "inputs": [
        {
          "components": [
            {
              "internalType": "address",
              "name": "player",
              "type": "address"
            },
            {
              "internalType": "uint256",
              "name": "amount",
              "type": "uint256"
            },
            {
              "internalType": "uint256",
              "name": "number",
              "type": "uint256"
            },
            {
              "internalType": "uint256",
              "name": "wonAmount",
              "type": "uint256"
            }
          ],
          "indexed": false,
          "internalType": "struct CryptoRoulette.Bet[]",
          "name": "bets",
          "type": "tuple[]"
        }
      ],
      "name": "NewBet",
      "type": "event"
    },
    {
      "anonymous": false,
      "inputs": [
        {
          "components": [
            {
              "internalType": "address",
              "name": "player",
              "type": "address"
            },
            {
              "internalType": "uint256",
              "name": "amount",
              "type": "uint256"
            },
            {
              "internalType": "uint256",
              "name": "number",
              "type": "uint256"
            },
            {
              "internalType": "uint256",
              "name": "wonAmount",
              "type": "uint256"
            }
          ],
          "indexed": false,
          "internalType": "struct CryptoRoulette.Bet[]",
          "name": "winners",
          "type": "tuple[]"
        },
        {
          "components": [
            {
              "internalType": "uint256",
              "name": "result",
              "type": "uint256"
            }
          ],
          "indexed": false,
          "internalType": "struct CryptoRoulette.Roulette",
          "name": "roulette",
          "type": "tuple"
        }
      ],
      "name": "Reveal",
      "type": "event"
    },
    {
      "inputs": [
        {
          "internalType": "uint256",
          "name": "",
          "type": "uint256"
        }
      ],
      "name": "bets",
      "outputs": [
        {
          "internalType": "address",
          "name": "player",
          "type": "address"
        },
        {
          "internalType": "uint256",
          "name": "amount",
          "type": "uint256"
        },
        {
          "internalType": "uint256",
          "name": "number",
          "type": "uint256"
        },
        {
          "internalType": "uint256",
          "name": "wonAmount",
          "type": "uint256"
        }
      ],
      "stateMutability": "view",
      "type": "function"
    },
    {
      "inputs": [],
      "name": "roulette",
      "outputs": [
        {
          "internalType": "uint256",
          "name": "result",
          "type": "uint256"
        }
      ],
      "stateMutability": "view",
      "type": "function"
    },
    {
      "inputs": [
        {
          "internalType": "uint256",
          "name": "_number",
          "type": "uint256"
        }
      ],
      "name": "bet",
      "outputs": [],
      "stateMutability": "payable",
      "type": "function"
    },
    {
      "inputs": [],
      "name": "getBets",
      "outputs": [
        {
          "components": [
            {
              "internalType": "address",
              "name": "player",
              "type": "address"
            },
            {
              "internalType": "uint256",
              "name": "amount",
              "type": "uint256"
            },
            {
              "internalType": "uint256",
              "name": "number",
              "type": "uint256"
            },
            {
              "internalType": "uint256",
              "name": "wonAmount",
              "type": "uint256"
            }
          ],
          "internalType": "struct CryptoRoulette.Bet[]",
          "name": "",
          "type": "tuple[]"
        }
      ],
      "stateMutability": "view",
      "type": "function"
    },
    {
      "inputs": [],
      "name": "end",
      "outputs": [],
      "stateMutability": "nonpayable",
      "type": "function"
    },
    {
      "inputs": [
        {
          "internalType": "address",
          "name": "_address",
          "type": "address"
        }
      ],
      "name": "addTrustedAddress",
      "outputs": [],
      "stateMutability": "nonpayable",
      "type": "function"
    }
  ],
  "bytecode": "0x608060405266038d7ea4c6800060025534801561001b57600080fd5b5033600160006101000a81548173ffffffffffffffffffffffffffffffffffffffff021916908373ffffffffffffffffffffffffffffffffffffffff160217905550600160036000600160009054906101000a900473ffffffffffffffffffffffffffffffffffffffff1673ffffffffffffffffffffffffffffffffffffffff1673ffffffffffffffffffffffffffffffffffffffff16815260200190815260200160002060006101000a81548160ff02191690831515021790555060006100f46001436100e99190610127565b61011960201b60201c565b9050604051806020016040528082815250600080820151816000015590505050610194565b6000814060001c9050919050565b60006101328261015b565b915061013d8361015b565b9250828210156101505761014f610165565b5b828203905092915050565b6000819050919050565b7f4e487b7100000000000000000000000000000000000000000000000000000000600052601160045260246000fd5b61117380620001a46000396000f3fe6080604052600436106100555760003560e01c806322af00fa1461005a5780637365870b1461009a578063a6afd5fd146100b6578063e713f127146100e1578063efbe1c1c1461010c578063fe62150514610123575b600080fd5b34801561006657600080fd5b50610081600480360381019061007c91906109fe565b61014c565b6040516100919493929190610cbc565b60405180910390f35b6100b460048036038101906100af91906109fe565b6101ac565b005b3480156100c257600080fd5b506100cb610423565b6040516100d89190610d01565b60405180910390f35b3480156100ed57600080fd5b506100f66104f6565b6040516101039190610dd5565b60405180910390f35b34801561011857600080fd5b50610121610502565b005b34801561012f57600080fd5b5061014a600480360381019061014591906109d1565b6107bf565b005b6005818154811061015c57600080fd5b90600052602060002090600402016000915090508060000160009054906101000a900473ffffffffffffffffffffffffffffffffffffffff16908060010154908060020154908060030154905084565b60025434116101f0576040517f08c379a00000000000000000000000000000000000000000000000000000000081526004016101e790610db5565b60405180910390fd5b601e8110610233576040517f08c379a000000000000000000000000000000000000000000000000000000000815260040161022a90610d75565b60405180910390fd5b600460003373ffffffffffffffffffffffffffffffffffffffff1673ffffffffffffffffffffffffffffffffffffffff16815260200190815260200160002060009054906101000a900460ff16156102c0576040517f08c379a00000000000000000000000000000000000000000000000000000000081526004016102b790610d95565b60405180910390fd5b600060405180608001604052803373ffffffffffffffffffffffffffffffffffffffff16815260200134815260200183815260200160008152509050600581908060018154018082558091505060019003906000526020600020906004020160009091909190915060008201518160000160006101000a81548173ffffffffffffffffffffffffffffffffffffffff021916908373ffffffffffffffffffffffffffffffffffffffff16021790555060208201518160010155604082015181600201556060820151816003015550506001600460003373ffffffffffffffffffffffffffffffffffffffff1673ffffffffffffffffffffffffffffffffffffffff16815260200190815260200160002060006101000a81548160ff0219169083151502179055507fd0c8cfe6c7e8082337b5515bbf2a68fb857a0a2388650f90d9569ab3ad8d31f860056040516104179190610d23565b60405180910390a15050565b60606005805480602002602001604051908101604052809291908181526020016000905b828210156104ed57838290600052602060002090600402016040518060800160405290816000820160009054906101000a900473ffffffffffffffffffffffffffffffffffffffff1673ffffffffffffffffffffffffffffffffffffffff1673ffffffffffffffffffffffffffffffffffffffff168152602001600182015481526020016002820154815260200160038201548152505081526020019060010190610447565b50505050905090565b60008060000154905081565b600360003373ffffffffffffffffffffffffffffffffffffffff1673ffffffffffffffffffffffffffffffffffffffff16815260200190815260200160002060009054906101000a900460ff1661055857600080fd5b60005b6005805490508110156107795760008001546005828154811061058157610580611007565b5b90600052602060002090600402016001015414156106c9576002600582815481106105af576105ae611007565b5b9060005260206000209060040201600101546105cb9190610e67565b600582815481106105df576105de611007565b5b90600052602060002090600402016003018190555060066005828154811061060a57610609611007565b5b906000526020600020906004020190806001815401808255809150506001900390600052602060002090600402016000909190919091506000820160009054906101000a900473ffffffffffffffffffffffffffffffffffffffff168160000160006101000a81548173ffffffffffffffffffffffffffffffffffffffff021916908373ffffffffffffffffffffffffffffffffffffffff16021790555060018201548160010155600282015481600201556003820154816003015550505b600060046000600584815481106106e3576106e2611007565b5b906000526020600020906004020160000160009054906101000a900473ffffffffffffffffffffffffffffffffffffffff1673ffffffffffffffffffffffffffffffffffffffff1673ffffffffffffffffffffffffffffffffffffffff16815260200190815260200160002060006101000a81548160ff021916908315150217905550808061077190610f8f565b91505061055b565b507fb7c54e328ec4ea3676fdc04ab706eed6801cb5ccb67fd7efb662d15c64e6390b600660006040516107ad929190610d45565b60405180910390a16107bd610874565b565b600160009054906101000a900473ffffffffffffffffffffffffffffffffffffffff1673ffffffffffffffffffffffffffffffffffffffff163373ffffffffffffffffffffffffffffffffffffffff161461081957600080fd5b6001600360008373ffffffffffffffffffffffffffffffffffffffff1673ffffffffffffffffffffffffffffffffffffffff16815260200190815260200160002060006101000a81548160ff02191690831515021790555050565b600360003373ffffffffffffffffffffffffffffffffffffffff1673ffffffffffffffffffffffffffffffffffffffff16815260200190815260200160002060009054906101000a900460ff166108ca57600080fd5b60006108e16001436108dc9190610ec1565b61091f565b905060405180602001604052808281525060008082015181600001559050506006600061090e919061092d565b6005600061091c919061092d565b50565b6000814060001c9050919050565b508054600082556004029060005260206000209081019061094e9190610951565b50565b5b808211156109a357600080820160006101000a81549073ffffffffffffffffffffffffffffffffffffffff021916905560018201600090556002820160009055600382016000905550600401610952565b5090565b6000813590506109b68161110f565b92915050565b6000813590506109cb81611126565b92915050565b6000602082840312156109e7576109e6611036565b5b60006109f5848285016109a7565b91505092915050565b600060208284031215610a1457610a13611036565b5b6000610a22848285016109bc565b91505092915050565b6000610a378383610b9d565b60808301905092915050565b6000610a4f8383610bf2565b60808301905092915050565b610a6481610f1f565b82525050565b610a7381610f1f565b82525050565b6000610a8482610e15565b610a8e8185610e45565b9350610a9983610df0565b8060005b83811015610aca578151610ab18882610a2b565b9750610abc83610e2b565b925050600181019050610a9d565b5085935050505092915050565b6000610ae282610e20565b610aec8185610e45565b9350610af783610e00565b8060005b83811015610b275781610b0e8882610a43565b9750610b1983610e38565b925050600181019050610afb565b5085935050505092915050565b6000610b41602183610e56565b9150610b4c82611048565b604082019050919050565b6000610b64601583610e56565b9150610b6f82611097565b602082019050919050565b6000610b87602783610e56565b9150610b92826110c0565b604082019050919050565b608082016000820151610bb36000850182610a5b565b506020820151610bc66020850182610c9e565b506040820151610bd96040850182610c9e565b506060820151610bec6060850182610c9e565b50505050565b608082016000808301549050610c0781610f5b565b610c146000860182610a5b565b5060018301549050610c2581610f75565b610c326020860182610c9e565b5060028301549050610c4381610f75565b610c506040860182610c9e565b5060038301549050610c6181610f75565b610c6e6060860182610c9e565b5050505050565b602082016000808301549050610c8a81610f75565b610c976000860182610c9e565b5050505050565b610ca781610f51565b82525050565b610cb681610f51565b82525050565b6000608082019050610cd16000830187610a6a565b610cde6020830186610cad565b610ceb6040830185610cad565b610cf86060830184610cad565b95945050505050565b60006020820190508181036000830152610d1b8184610a79565b905092915050565b60006020820190508181036000830152610d3d8184610ad7565b905092915050565b60006040820190508181036000830152610d5f8185610ad7565b9050610d6e6020830184610c75565b9392505050565b60006020820190508181036000830152610d8e81610b34565b9050919050565b60006020820190508181036000830152610dae81610b57565b9050919050565b60006020820190508181036000830152610dce81610b7a565b9050919050565b6000602082019050610dea6000830184610cad565b92915050565b6000819050602082019050919050565b60008190508160005260206000209050919050565b600081519050919050565b600081549050919050565b6000602082019050919050565b6000600482019050919050565b600082825260208201905092915050565b600082825260208201905092915050565b6000610e7282610f51565b9150610e7d83610f51565b9250817fffffffffffffffffffffffffffffffffffffffffffffffffffffffffffffffff0483118215151615610eb657610eb5610fd8565b5b828202905092915050565b6000610ecc82610f51565b9150610ed783610f51565b925082821015610eea57610ee9610fd8565b5b828203905092915050565b600073ffffffffffffffffffffffffffffffffffffffff82169050919050565b6000819050919050565b6000610f2a82610f31565b9050919050565b600073ffffffffffffffffffffffffffffffffffffffff82169050919050565b6000819050919050565b6000610f6e610f698361103b565b610ef5565b9050919050565b6000610f88610f838361103b565b610f15565b9050919050565b6000610f9a82610f51565b91507fffffffffffffffffffffffffffffffffffffffffffffffffffffffffffffffff821415610fcd57610fcc610fd8565b5b600182019050919050565b7f4e487b7100000000000000000000000000000000000000000000000000000000600052601160045260246000fd5b7f4e487b7100000000000000000000000000000000000000000000000000000000600052603260045260246000fd5b600080fd5b60008160001c9050919050565b7f496e707574206e756d626572206d757374206265206c657373207468616e203360008201527f3000000000000000000000000000000000000000000000000000000000000000602082015250565b7f596f752063616e206f6e6c7920626574206f6e63650000000000000000000000600082015250565b7f42657420616d6f756e742073686f756c64206265206174206c6561737420302e60008201527f3030312045544800000000000000000000000000000000000000000000000000602082015250565b61111881610f1f565b811461112357600080fd5b50565b61112f81610f51565b811461113a57600080fd5b5056fea26469706673582212206740bbbf3a8663e1043e7cb8744c2dfee0f53cdabda98452be91b05e7ee236e664736f6c63430008070033",
  "immutableReferences": {},
  "source": "// SPDX-License-Identifier: MIT\npragma solidity >=0.4.25;\n\ncontract CryptoRoulette {\n\n    Roulette public roulette;\n    address owner;\n    uint minAmount = 0.001 ether;\n    mapping(address => bool) trustedAddresses;\n    mapping(address => bool) hasBetted;\n    Bet[] public bets;\n    Bet[] winners;\n    event Reveal(Bet[] winners, Roulette roulette);\n    event NewBet(Bet[] bets);\n\n    constructor() {\n        owner = msg.sender;\n        trustedAddresses[owner] = true;\n        uint random = randomNumber(block.number - 1);\n        roulette = Roulette(random);\n    }\n\n    struct Roulette {\n        uint result;\n    }\n\n    struct Bet {\n        address player;\n        uint amount;\n        uint number;\n        uint wonAmount;\n    }\n\n    modifier onlyOwner() {\n        require(msg.sender == owner);\n        _;\n    }\n\n    modifier onlyTrusted() {\n        require(trustedAddresses[msg.sender]);\n        _;\n    }\n\n    function bet(uint _number) payable public {\n        require(msg.value > minAmount, \"Bet amount should be at least 0.001 ETH\");\n        require(_number < 30, \"Input number must be less than 30\");\n        require(!hasBetted[msg.sender], \"You can only bet once\");\n        Bet memory newBet = Bet(msg.sender, msg.value, _number, 0);\n        bets.push(newBet);\n        hasBetted[msg.sender] = true;\n        emit NewBet(bets);\n    }\n\n    function getBets() public view returns (Bet[] memory) {\n        return bets;\n    }\n\n    function end() public onlyTrusted {\n        for (uint i = 0; i < bets.length; i++) {\n            if (bets[i].amount == roulette.result) {\n                bets[i].wonAmount = bets[i].amount * 2;\n                winners.push(bets[i]);\n            }\n            hasBetted[bets[i].player] = false;\n        }\n        emit Reveal(winners, roulette);\n        resetGame();\n    }\n\n    function resetGame() internal onlyTrusted {\n        uint random = randomNumber(block.number - 1);\n        roulette = Roulette(random);\n        delete winners;\n        delete bets;\n    }\n\n    function addTrustedAddress(address _address) public onlyOwner {\n        trustedAddresses[_address] = true;\n    }\n\n    function randomNumber(uint _blockNumber) internal view returns (uint) {\n        return uint(blockhash(_blockNumber));\n    }\n\n}\n",
  "sourcePath": "/home/thomas/workspace/my-dapp/contracts/CryptoRoulette.sol",
  "compiler": {
    "name": "solc",
    "version": "0.8.7+commit.e28d00a7.Emscripten.clang"
  },
  "schemaVersion": "3.4.3",
  "updatedAt": "2021-08-22T10:05:28.758Z",
  "devdoc": {
    "kind": "dev",
    "methods": {},
    "version": 1
  },
  "userdoc": {
    "kind": "user",
    "methods": {},
    "version": 1
  }
}