{
  "contractName": "CryptoRoulette",
  "abi": [
    {
      "inputs": [],
      "stateMutability": "nonpayable",
      "type": "constructor"
    },
    {
      "anonymous": false,
      "inputs": [
        {
          "components": [
            {
              "internalType": "address",
              "name": "player",
              "type": "address"
            },
            {
              "internalType": "uint256",
              "name": "amount",
              "type": "uint256"
            },
            {
              "internalType": "uint256",
              "name": "wonAmount",
              "type": "uint256"
            }
          ],
          "indexed": false,
          "internalType": "struct CryptoRoulette.Bet[]",
          "name": "winners",
          "type": "tuple[]"
        },
        {
          "components": [
            {
              "internalType": "uint256",
              "name": "result",
              "type": "uint256"
            }
          ],
          "indexed": false,
          "internalType": "struct CryptoRoulette.Roulette",
          "name": "roulette",
          "type": "tuple"
        }
      ],
      "name": "Reveal",
      "type": "event"
    },
    {
      "inputs": [
        {
          "internalType": "uint256",
          "name": "",
          "type": "uint256"
        }
      ],
      "name": "bets",
      "outputs": [
        {
          "internalType": "address",
          "name": "player",
          "type": "address"
        },
        {
          "internalType": "uint256",
          "name": "amount",
          "type": "uint256"
        },
        {
          "internalType": "uint256",
          "name": "wonAmount",
          "type": "uint256"
        }
      ],
      "stateMutability": "view",
      "type": "function",
      "constant": true
    },
    {
      "inputs": [],
      "name": "roulette",
      "outputs": [
        {
          "internalType": "uint256",
          "name": "result",
          "type": "uint256"
        }
      ],
      "stateMutability": "view",
      "type": "function",
      "constant": true
    },
    {
      "inputs": [
        {
          "internalType": "uint256",
          "name": "number",
          "type": "uint256"
        }
      ],
      "name": "bet",
      "outputs": [],
      "stateMutability": "payable",
      "type": "function",
      "payable": true
    },
    {
      "inputs": [],
      "name": "end",
      "outputs": [],
      "stateMutability": "nonpayable",
      "type": "function"
    },
    {
      "inputs": [
        {
          "internalType": "address",
          "name": "_address",
          "type": "address"
        }
      ],
      "name": "addTrustedAddress",
      "outputs": [],
      "stateMutability": "nonpayable",
      "type": "function"
    }
  ],
  "bytecode": "0x60806040526305f5e10060025534801561001857600080fd5b5033600160006101000a81548173ffffffffffffffffffffffffffffffffffffffff021916908373ffffffffffffffffffffffffffffffffffffffff160217905550600160036000600160009054906101000a900473ffffffffffffffffffffffffffffffffffffffff1673ffffffffffffffffffffffffffffffffffffffff1673ffffffffffffffffffffffffffffffffffffffff16815260200190815260200160002060006101000a81548160ff02191690831515021790555060006100f16001436100e69190610124565b61011660201b60201c565b9050604051806020016040528082815250600080820151816000015590505050610191565b6000814060001c9050919050565b600061012f82610158565b915061013a83610158565b92508282101561014d5761014c610162565b5b828203905092915050565b6000819050919050565b7f4e487b7100000000000000000000000000000000000000000000000000000000600052601160045260246000fd5b610cb8806101a06000396000f3fe60806040526004361061004a5760003560e01c806322af00fa1461004f5780637365870b1461008e578063e713f127146100aa578063efbe1c1c146100d5578063fe621505146100ec575b600080fd5b34801561005b57600080fd5b5061007660048036038101906100719190610712565b610115565b604051610085939291906108c4565b60405180910390f35b6100a860048036038101906100a39190610712565b61016f565b005b3480156100b657600080fd5b506100bf6102b9565b6040516100cc919061096b565b60405180910390f35b3480156100e157600080fd5b506100ea6102c5565b005b3480156100f857600080fd5b50610113600480360381019061010e91906106e5565b6104db565b005b6004818154811061012557600080fd5b90600052602060002090600302016000915090508060000160009054906101000a900473ffffffffffffffffffffffffffffffffffffffff16908060010154908060020154905083565b60025434116101b3576040517f08c379a00000000000000000000000000000000000000000000000000000000081526004016101aa9061092b565b60405180910390fd5b601e81106101f6576040517f08c379a00000000000000000000000000000000000000000000000000000000081526004016101ed9061094b565b60405180910390fd5b600060405180606001604052803373ffffffffffffffffffffffffffffffffffffffff16815260200134815260200160008152509050600481908060018154018082558091505060019003906000526020600020906003020160009091909190915060008201518160000160006101000a81548173ffffffffffffffffffffffffffffffffffffffff021916908373ffffffffffffffffffffffffffffffffffffffff160217905550602082015181600101556040820151816002015550505050565b60008060000154905081565b600360003373ffffffffffffffffffffffffffffffffffffffff1673ffffffffffffffffffffffffffffffffffffffff16815260200190815260200160002060009054906101000a900460ff1661031b57600080fd5b60005b6004805490508110156104955760008001546004828154811061034457610343610b75565b5b90600052602060002090600302016001015414156104825760026004828154811061037257610371610b75565b5b90600052602060002090600302016001015461038e91906109d5565b600482815481106103a2576103a1610b75565b5b9060005260206000209060030201600201819055506005600482815481106103cd576103cc610b75565b5b906000526020600020906003020190806001815401808255809150506001900390600052602060002090600302016000909190919091506000820160009054906101000a900473ffffffffffffffffffffffffffffffffffffffff168160000160006101000a81548173ffffffffffffffffffffffffffffffffffffffff021916908373ffffffffffffffffffffffffffffffffffffffff160217905550600182015481600101556002820154816002015550505b808061048d90610afd565b91505061031e565b507f6ffed43c9571efd3b3f3b4ad4e646b521a77e0c9866d6e33c7ebb57b1866fdb3600560006040516104c99291906108fb565b60405180910390a16104d9610590565b565b600160009054906101000a900473ffffffffffffffffffffffffffffffffffffffff1673ffffffffffffffffffffffffffffffffffffffff163373ffffffffffffffffffffffffffffffffffffffff161461053557600080fd5b6001600360008373ffffffffffffffffffffffffffffffffffffffff1673ffffffffffffffffffffffffffffffffffffffff16815260200190815260200160002060006101000a81548160ff02191690831515021790555050565b600360003373ffffffffffffffffffffffffffffffffffffffff1673ffffffffffffffffffffffffffffffffffffffff16815260200190815260200160002060009054906101000a900460ff166105e657600080fd5b60006105fd6001436105f89190610a2f565b61063b565b905060405180602001604052808281525060008082015181600001559050506005600061062a9190610649565b600460006106389190610649565b50565b6000814060001c9050919050565b508054600082556003029060005260206000209081019061066a919061066d565b50565b5b808211156106b757600080820160006101000a81549073ffffffffffffffffffffffffffffffffffffffff0219169055600182016000905560028201600090555060030161066e565b5090565b6000813590506106ca81610c54565b92915050565b6000813590506106df81610c6b565b92915050565b6000602082840312156106fb576106fa610ba4565b5b6000610709848285016106bb565b91505092915050565b60006020828403121561072857610727610ba4565b5b6000610736848285016106d0565b91505092915050565b600061074b8383610818565b60608301905092915050565b61076081610a8d565b82525050565b61076f81610a8d565b82525050565b60006107808261099b565b61078a81856109b3565b935061079583610986565b8060005b838110156107c557816107ac888261073f565b97506107b7836109a6565b925050600181019050610799565b5085935050505092915050565b60006107df6025836109c4565b91506107ea82610bb6565b604082019050919050565b60006108026021836109c4565b915061080d82610c05565b604082019050919050565b60608201600080830154905061082d81610ac9565b61083a6000860182610757565b506001830154905061084b81610ae3565b61085860208601826108a6565b506002830154905061086981610ae3565b61087660408601826108a6565b5050505050565b60208201600080830154905061089281610ae3565b61089f60008601826108a6565b5050505050565b6108af81610abf565b82525050565b6108be81610abf565b82525050565b60006060820190506108d96000830186610766565b6108e660208301856108b5565b6108f360408301846108b5565b949350505050565b600060408201905081810360008301526109158185610775565b9050610924602083018461087d565b9392505050565b60006020820190508181036000830152610944816107d2565b9050919050565b60006020820190508181036000830152610964816107f5565b9050919050565b600060208201905061098060008301846108b5565b92915050565b60008190508160005260206000209050919050565b600081549050919050565b6000600382019050919050565b600082825260208201905092915050565b600082825260208201905092915050565b60006109e082610abf565b91506109eb83610abf565b9250817fffffffffffffffffffffffffffffffffffffffffffffffffffffffffffffffff0483118215151615610a2457610a23610b46565b5b828202905092915050565b6000610a3a82610abf565b9150610a4583610abf565b925082821015610a5857610a57610b46565b5b828203905092915050565b600073ffffffffffffffffffffffffffffffffffffffff82169050919050565b6000819050919050565b6000610a9882610a9f565b9050919050565b600073ffffffffffffffffffffffffffffffffffffffff82169050919050565b6000819050919050565b6000610adc610ad783610ba9565b610a63565b9050919050565b6000610af6610af183610ba9565b610a83565b9050919050565b6000610b0882610abf565b91507fffffffffffffffffffffffffffffffffffffffffffffffffffffffffffffffff821415610b3b57610b3a610b46565b5b600182019050919050565b7f4e487b7100000000000000000000000000000000000000000000000000000000600052601160045260246000fd5b7f4e487b7100000000000000000000000000000000000000000000000000000000600052603260045260246000fd5b600080fd5b60008160001c9050919050565b7f42657420616d6f756e742073686f756c64206265206174206c6561737420302e60008201527f3120455448000000000000000000000000000000000000000000000000000000602082015250565b7f496e707574206e756d626572206d757374206265206c657373207468616e203360008201527f3000000000000000000000000000000000000000000000000000000000000000602082015250565b610c5d81610a8d565b8114610c6857600080fd5b50565b610c7481610abf565b8114610c7f57600080fd5b5056fea26469706673582212203acc42b36fc2bca69d340fafbcac898e0d1dc2976f86c439eab1b71b796822c464736f6c63430008070033",
  "immutableReferences": {},
  "source": "// SPDX-License-Identifier: MIT\npragma solidity >=0.4.25;\n\ncontract CryptoRoulette {\n\n    Roulette public roulette;\n    address owner;\n    uint minAmount = 100000000;\n    mapping(address => bool) trustedAddresses;\n    Bet[] public bets;\n    Bet[] winners;\n    event Reveal(Bet[] winners, Roulette roulette);\n\n    constructor() {\n        owner = msg.sender;\n        trustedAddresses[owner] = true;\n        uint random = randomNumber(block.number - 1);\n        roulette = Roulette(random);\n    }\n\n    struct Roulette {\n        uint result;\n    }\n\n    struct Bet {\n        address player;\n        uint amount;\n        uint wonAmount;\n    }\n\n    modifier onlyOwner() {\n        require(msg.sender == owner);\n        _;\n    }\n\n    modifier onlyTrusted() {\n        require(trustedAddresses[msg.sender]);\n        _;\n    }\n\n    function bet(uint number) payable public {\n        require(msg.value > minAmount, \"Bet amount should be at least 0.1 ETH\");\n        require(number < 30, \"Input number must be less than 30\");\n        Bet memory newBet = Bet(msg.sender, msg.value, 0);\n        bets.push(newBet);\n    }\n\n    function end() public onlyTrusted {\n        for (uint i = 0; i < bets.length; i++) {\n            if (bets[i].amount == roulette.result) {\n                bets[i].wonAmount = bets[i].amount * 2;\n                winners.push(bets[i]);\n            }\n        }\n        emit Reveal(winners, roulette);\n        resetGame();\n    }\n\n    function resetGame() internal onlyTrusted {\n        uint random = randomNumber(block.number - 1);\n        roulette = Roulette(random);\n        delete winners;\n        delete bets;\n    }\n\n    function addTrustedAddress(address _address) public onlyOwner {\n        trustedAddresses[_address] = true;\n    }\n\n    function randomNumber(uint _blockNumber) internal view returns (uint) {\n        return uint(blockhash(_blockNumber));\n    }\n\n}\n",
  "sourcePath": "/home/thomas/workspace/my-dapp/contracts/CryptoRoulette.sol",
  "compiler": {
    "name": "solc",
    "version": "0.8.7+commit.e28d00a7.Emscripten.clang"
  },
  "schemaVersion": "3.4.3",
  "updatedAt": "2021-08-21T18:01:19.908Z",
  "networkType": "ethereum",
  "devdoc": {
    "kind": "dev",
    "methods": {},
    "version": 1
  },
  "userdoc": {
    "kind": "user",
    "methods": {},
    "version": 1
  }
}